0100000090158265730000000000000000123202602280101A                                                                                                                                                                          
0577099982841110030comunicaciones                                                                                                                                                                                           
06000000000000000000000000000000000000001079172916000000000000000000000030002699010112300000007990000770999828411100000000000000202602280000000100000000000000001010000001079172916POISSON NAGAI MEDINA G001000000001       
06000000000000000000000000000000000000001079174016000000000000000000000030002699310112300000004993300770999828411100000000000000202602280000000100000000000000001010000001079174016YINA MARCELA GUEVA ROD001000000001       
06000000000000000000000000000000000000000083091537000000000000000000000030002714520112300000004990000770999828411100000000000000202602280000000100000000000000001010000000083091537CARLOS ANDRES LEON    001000000001       
06000000000000000000000000000000000000001079187172000000000000000000000030002702650112300000005322200770999828411100000000000000202602280000000100000000000000001010000001079187172FABIAN ANDRES AVILES M001000000001       
06000000000000000000000000000000000000000079977193000000000000000000000030002711810112300000004990000770999828411100000000000000202602280000000100000000000000001010000000079977193EDWIN SAMUEL RAMIREZ L001000000001       
06000000000000000000000000000000000000000083089811000000000000000000000030002713800112300000004990000770999828411100000000000000202602280000000100000000000000001010000000083089811FAIVER RIVERA SANTA   001000000001       
06000000000000000000000000000000000000001079179638000000000000000000000030002701000112300000006118000770999828411100000000000000202602280000000100000000000000001010000001079179638MARIA ALEJANDRA CASANO001000000001       
06000000000000000000000000000000000000000083087751000000000000000000000030002712990112300000022974900770999828411100000000000000202602280000000100000000000000001010000000083087751ELIAS CORDOBA PASTRANA001000000001       
06000000000000000000000000000000000000000026467232000000000000000000000030002704840112300000015092700770999828411100000000000000202602280000000100000000000000001010000000026467232AMINTA CABRERA DE CUEN001000000001       
06000000000000000000000000000000000000000004894179000000000000000000000030002715660112300000004990000770999828411100000000000000202602280000000100000000000000001010000000004894179SANTIAGO HERRERA      001000000001       
06000000000000000000000000000000000000000036278946000000000000000000000030002708130112300000018439800770999828411100000000000000202602280000000100000000000000001010000000036278946MARIA MAGOLA MONTOYA M001000000001       
06000000000000000000000000000000000000000288792691000000000000000000000030002705790112300000004823200770999828411100000000000000202602280000000100000000000000001010000000288792691HERMENCIA PEŃA CASTRO 001000000001       
06000000000000000000000000000000000000000036345200000000000000000000000030002708260112300000004990000770999828411100000000000000202602280000000100000000000000001010000000036345200SANDRA MILENA GOMEZ GI001000000001       
06000000000000000000000000000000000000001079181501000000000000000000000030002701620112300000016466000770999828411100000000000000202602280000000100000000000000001010000001079181501LAURA MARIA TRUJILLO C001000000001       
06000000000000000000000000000000000000000083087422000000000000000000000030002712890112300000002800000770999828411100000000000000202602280000000100000000000000001010000000083087422AMIN LOSADA GAITAN    001000000001       
06000000000000000000000000000000000000000036346069000000000000000000000030002708770112300000018678000770999828411100000000000000202602280000000100000000000000001010000000036346069AMPARO OSPINA MEDINA  001000000001       
06000000000000000000000000000000000000000036345436000000000000000000000030002708390112300000013516100770999828411100000000000000202602280000000100000000000000001010000000036345436ARGENYS TOVAR TRUJILLO001000000001       
06000000000000000000000000000000000000000037259849000000000000000000000030002709990112300000008567700770999828411100000000000000202602280000000100000000000000001010000000037259849MARIA ISMELDA CORTES A001000000001       
06000000000000000000000000000000000000000055173109000000000000000000000030002715700112300000007990000770999828411100000000000000202602280000000100000000000000001010000000055173109MARYURI ANDRADE MAŃOZC001000000001       
06000000000000000000000000000000000000000083091812000000000000000000000030002714630112300000005593200770999828411100000000000000202602280000000100000000000000001010000000083091812LUIS FERNEY GARCIA ROM001000000001       
06000000000000000000000000000000000000000071795716000000000000000000000030002711370112300000005988600770999828411100000000000000202602280000000100000000000000001010000000071795716JUAN CAMILO CANO ROJAS001000000001       
06000000000000000000000000000000000000000017125716000000000000000000000030002704100112300000004158000770999828411100000000000000202602280000000100000000000000001010000000017125716ONOLDO FIGUEROA OTALOR001000000001       
06000000000000000000000000000000000000000080206261000000000000000000000030002711870112300000007100000770999828411100000000000000202602280000000100000000000000001010000000080206261ARTURO CULMA MEDINA   001000000001       
06000000000000000000000000000000000000001079172489000000000000000000000030002698830112300000002855900770999828411100000000000000202602280000000100000000000000001010000001079172489JENNIFER OLAYA SEGURA 001000000001       
06000000000000000000000000000000000000001079183653000000000000000000000030002702060112300000004990000770999828411100000000000000202602280000000100000000000000001010000001079183653JUAN DAVID HERRERA MOR001000000001       
06000000000000000000000000000000000000000036346815000000000000000000000030002709100112300000019732900770999828411100000000000000202602280000000100000000000000001010000000036346815NINI YOHANNA PERDOMO T001000000001       
06000000000000000000000000000000000000001079175552000000000000000000000030002699760112300000003796600770999828411100000000000000202602280000000100000000000000001010000001079175552KARLA TATIANA CASAS RO001000000001       
06000000000000000000000000000000000000000083086922000000000000000000000030002712680112300000002000000770999828411100000000000000202602280000000100000000000000001010000000083086922LUIS ANGEL GUTIERREZ M001000000001       
06000000000000000000000000000000000000000036345576000000000000000000000030002715720112300000005990000770999828411100000000000000202602280000000100000000000000001010000000036345576ADRIANA CALIMAN PERDOM001000000001       
06000000000000000000000000000000000000000083258394000000000000000000000030002715390112300000025666700770999828411100000000000000202602280000000100000000000000001010000000083258394EDUARD ALFONSO CANO ES001000000001       
06000000000000000000000000000000000000001079174689000000000000000000000030002699480112300000012493600770999828411100000000000000202602280000000100000000000000001010000001079174689JORGE LUIS GARCIA CORT001000000001       
06000000000000000000000000000000000000000083089020000000000000000000000030002713540112300000038727100770999828411100000000000000202602280000000100000000000000001010000000083089020FERNELY LISCANO FIERRO001000000001       
06000000000000000000000000000000000000001079175125000000000000000000000030002699630112300000012424000770999828411100000000000000202602280000000100000000000000001010000001079175125FERLY YISELA OROZCO GA001000000001       
06000000000000000000000000000000000000000083092446000000000000000000000030002714850112300000021441900770999828411100000000000000202602280000000100000000000000001010000000083092446RODRIGO SIERRA OLAYA  001000000001       
06000000000000000000000000000000000000001079179966000000000000000000000030002701070112300000004990000770999828411100000000000000202602280000000100000000000000001010000001079179966ROBINSON GARCIA ALARCO001000000001       
06000000000000000000000000000000000000001079185566000000000000000000000030002702440112300000004990000770999828411100000000000000202602280000000100000000000000001010000001079185566MARIA ISABEL CARVAJAL 001000000001       
06000000000000000000000000000000000000000019139945000000000000000000000030002704300112300000005089700770999828411100000000000000202602280000000100000000000000001010000000019139945JOSE DANIEL TELLEZ    001000000001       
06000000000000000000000000000000000000000094070242000000000000000000000030002715530112300000007997800770999828411100000000000000202602280000000100000000000000001010000000094070242JUAN CARLOS SANCHEZ PU001000000001       
06000000000000000000000000000000000000000036151836000000000000000000000030002708000112300000002800000770999828411100000000000000202602280000000100000000000000001010000000036151836TERESA POLANIA        001000000001       
06000000000000000000000000000000000000000007711826000000000000000000000030002711570112300000004993900770999828411100000000000000202602280000000100000000000000001010000000007711826EDUAR CERQUERA        001000000001       
06000000000000000000000000000000000000000083087258000000000000000000000030002712820112300000002855900770999828411100000000000000202602280000000100000000000000001010000000083087258RUBEN DARIO GARCIA MUŃ001000000001       
06000000000000000000000000000000000000000083086048000000000000000000000030002712300112300000002803800770999828411100000000000000202602280000000100000000000000001010000000083086048GUILLERMO CAMACHO HERN001000000001       
06000000000000000000000000000000000000001079185603000000000000000000000030002702450112300000004990000770999828411100000000000000202602280000000100000000000000001010000001079185603KARLA VANESSA PUENTES 001000000001       
06000000000000000000000000000000000000000036345555000000000000000000000030002708470112300000013465900770999828411100000000000000202602280000000100000000000000001010000000036345555SANDRA PATRICIA PERDOM001000000001       
06000000000000000000000000000000000000000083088719000000000000000000000030002713380112300000018131400770999828411100000000000000202602280000000100000000000000001010000000083088719WILSON CORTES         001000000001       
06000000000000000000000000000000000000000036088183000000000000000000000030002707030112300000021001900770999828411100000000000000202602280000000100000000000000001010000000036088183SANDRA LILIANA ALVAREZ001000000001       
06000000000000000000000000000000000000000018187155000000000000000000000030002704240112300000012308300770999828411100000000000000202602280000000100000000000000001010000000018187155CESAR AUGUSTO CORTES  001000000001       
06000000000000000000000000000000000000000083090007000000000000000000000030002713900112300000024482900770999828411100000000000000202602280000000100000000000000001010000000083090007JOSE RAMON TOQUICA VEG001000000001       
06000000000000000000000000000000000000000026467270000000000000000000000030002704860112300000027563500770999828411100000000000000202602280000000100000000000000001010000000026467270MARIA DOLORES RAMIREZ 001000000001       
06000000000000000000000000000000000000000094287083000000000000000000000030002715570112300000020342700770999828411100000000000000202602280000000100000000000000001010000000094287083WILLIAM LOPEZ RODRIGUE001000000001       
06000000000000000000000000000000000000000083092046000000000000000000000030002714710112300000103867300770999828411100000000000000202602280000000100000000000000001010000000083092046RONALD RICARDO GUTIERR001000000001       
06000000000000000000000000000000000000000079731553000000000000000000000030002711740112300000002800000770999828411100000000000000202602280000000100000000000000001010000000079731553JHON ANDRADE PERDOMO  001000000001       
06000000000000000000000000000000000000001079172822000000000000000000000030002698960112300000004990000770999828411100000000000000202602280000000100000000000000001010000001079172822RODRIGO PERDOMO PULIDO001000000001       
06000000000000000000000000000000000000000036087453000000000000000000000030002706600112300000008575300770999828411100000000000000202602280000000100000000000000001010000000036087453LUZ DARY PIAMBA CABRER001000000001       
06000000000000000000000000000000000000001079174771000000000000000000000030002699530112300000002801800770999828411100000000000000202602280000000100000000000000001010000001079174771JULIETH LORENA CUENCA 001000000001       
06000000000000000000000000000000000000001079186653000000000000000000000030002702600112300000004990000770999828411100000000000000202602280000000100000000000000001010000001079186653JHON FENNER BERMUDEZ C001000000001       
06000000000000000000000000000000000000000016271121000000000000000000000030002704030112300000008571300770999828411100000000000000202602280000000100000000000000001010000000016271121JOSE IGNACIO DUQUE GAL001000000001       
06000000000000000000000000000000000000000083086810000000000000000000000030002712630112300000002800000770999828411100000000000000202602280000000100000000000000001010000000083086810JAIME CHARRY CORTES   001000000001       
06000000000000000000000000000000000000000083088351000000000000000000000030002713250112300000004490600770999828411100000000000000202602280000000100000000000000001010000000083088351JORGE ENRIQUE POLANIA 001000000001       
06000000000000000000000000000000000000000083089760000000000000000000000030002713750112300000016135100770999828411100000000000000202602280000000100000000000000001010000000083089760ELBER BARREIRO POLO   001000000001       
06000000000000000000000000000000000000000036342284000000000000000000000030002708180112300000043169900770999828411100000000000000202602280000000100000000000000001010000000036342284MARISOL VILLALBA FUENT001000000001       
06000000000000000000000000000000000000001079178261000000000000000000000030002700560112300000014563200770999828411100000000000000202602280000000100000000000000001010000001079178261YANDRY LORENA GUTIERRE001000000001       
06000000000000000000000000000000000000000026466507000000000000000000000030002704670112300000021750400770999828411100000000000000202602280000000100000000000000001010000000026466507AMANDA GUTIERREZ DE ME001000000001       
06000000000000000000000000000000000000000036346149000000000000000000000030002708780112300000004993900770999828411100000000000000202602280000000100000000000000001010000000036346149DAYI ZULEIMA VARGAS CH001000000001       
06000000000000000000000000000000000000000036347591000000000000000000000030002709480112300000014483800770999828411100000000000000202602280000000100000000000000001010000000036347591ANDREA SALAZAR PERDOMO001000000001       
06000000000000000000000000000000000000000012132860000000000000000000000030002703570112300000002967900770999828411100000000000000202602280000000100000000000000001010000000012132860EFRAIN CUENCA RIVAS   001000000001       
06000000000000000000000000000000000000001079178113000000000000000000000030002700540112300000002800000770999828411100000000000000202602280000000100000000000000001010000001079178113GEANNE GISSETH LOPEZ G001000000001       
06000000000000000000000000000000000000000026467831000000000000000000000030002705060112300000002800000770999828411100000000000000202602280000000100000000000000001010000000026467831ANGELICA CUELLAR MENDE001000000001       
06000000000000000000000000000000000000001121925312000000000000000000000030002703230112300000004990000770999828411100000000000000202602280000000100000000000000001010000001121925312GLADYS NATALIA ALFEREZ001000000001       
06000000000000000000000000000000000000000083090505000000000000000000000030002714140112300000013515100770999828411100000000000000202602280000000100000000000000001010000000083090505IVAN HERNANDEZ FIERRO 001000000001       
06000000000000000000000000000000000000000083085811000000000000000000000030002712250112300000028124600770999828411100000000000000202602280000000100000000000000001010000000083085811GUSTAVO QUINTANA      001000000001       
06000000000000000000000000000000000000000083087771000000000000000000000030002713010112300000020649700770999828411100000000000000202602280000000100000000000000001010000000083087771FREDY BAUTISTA        001000000001       
06000000000000000000000000000000000000000036346588000000000000000000000030002709020112300000012612200770999828411100000000000000202602280000000100000000000000001010000000036346588NINI YOHANA PINILLA FI001000000001       
06000000000000000000000000000000000000000036383124000000000000000000000030002709960112300000004990000770999828411100000000000000202602280000000100000000000000001010000000036383124YANETH ROCIO OSORIO TO001000000001       
06000000000000000000000000000000000000001075244822000000000000000000000030002698380112300000004990000770999828411100000000000000202602280000000100000000000000001010000001075244822LESVY RODRIGUEZ MEDINA001000000001       
06000000000000000000000000000000000000000004894907000000000000000000000030002710690112300000008588600770999828411100000000000000202602280000000100000000000000001010000000004894907LUIS OCTAVIO MORALES P001000000001       
06000000000000000000000000000000000000000026465830000000000000000000000030002704620112300000008567700770999828411100000000000000202602280000000100000000000000001010000000026465830RUBIELA GARCIA DE ANDR001000000001       
06000000000000000000000000000000000000001000254225000000000000000000000030002697500112300000004990000770999828411100000000000000202602280000000100000000000000001010000001000254225MARIA FERNANDA LISCANO001000000001       
06000000000000000000000000000000000000001075216682000000000000000000000030002698260112300000004990000770999828411100000000000000202602280000000100000000000000001010000001075216682DAVINSON GONZALEZ MEND001000000001       
06000000000000000000000000000000000000001079175877000000000000000000000030002715690112300000004990000770999828411100000000000000202602280000000100000000000000001010000001079175877YEFERSON QUIMBAYA DIAZ001000000001       
06000000000000000000000000000000000000001007503042000000000000000000000030002697810112300000002498100770999828411100000000000000202602280000000100000000000000001010000001007503042LEIDY LORENA TRUJILLO 001000000001       
06000000000000000000000000000000000000000036345941000000000000000000000030002708670112300000018387200770999828411100000000000000202602280000000100000000000000001010000000036345941ADRIANA BARRERA DIAZ  001000000001       
06000000000000000000000000000000000000000036347129000000000000000000000030002709290112300000022233700770999828411100000000000000202602280000000100000000000000001010000000036347129LIBIA YANETH GONZALEZ 001000000001       
06000000000000000000000000000000000000000019279145000000000000000000000030002704320112300000020502300770999828411100000000000000202602280000000100000000000000001010000000019279145HUMBERTO CAMACHO MONJE001000000001       
06000000000000000000000000000000000000000083085568000000000000000000000030002712130112300000002490000770999828411100000000000000202602280000000100000000000000001010000000083085568EUGENIO QUINTERO DURAN001000000001       
06000000000000000000000000000000000000001083840738000000000000000000000030002702840112300000002000000770999828411100000000000000202602280000000100000000000000001010000001083840738DERLY LORENA FIERRO PE001000000001       
06000000000000000000000000000000000000001079182236000000000000000000000030002701760112300000004990000770999828411100000000000000202602280000000100000000000000001010000001079182236YANCI ESMID WALTEROS F001000000001       
06000000000000000000000000000000000000001075301031000000000000000000000030002698570112300000014509300770999828411100000000000000202602280000000100000000000000001010000001075301031LUIS CAMILO MONJE PERD001000000001       
06000000000000000000000000000000000000001004063646000000000000000000000030002697700112300000008384800770999828411100000000000000202602280000000100000000000000001010000001004063646CARLOS DUBAN DIAZ OLIV001000000001       
06000000000000000000000000000000000000000036152073000000000000000000000030002708020112300000002855900770999828411100000000000000202602280000000100000000000000001010000000036152073MARIA LUBIOLA SILVA MA001000000001       
06000000000000000000000000000000000000000083086309000000000000000000000030002712400112300000002801800770999828411100000000000000202602280000000100000000000000001010000000083086309JOSE MILLER SNCHEZ GON001000000001       
06000000000000000000000000000000000000000036087708000000000000000000000030002706820112300000022432200770999828411100000000000000202602280000000100000000000000001010000000036087708DORA LILIA CASANOVA CH001000000001       
06000000000000000000000000000000000000000026468864000000000000000000000030002705470112300000005711800770999828411100000000000000202602280000000100000000000000001010000000026468864AMPARO ROJAS          001000000001       
06000000000000000000000000000000000000000083086430000000000000000000000030002712450112300000004990000770999828411100000000000000202602280000000100000000000000001010000000083086430JOSE EVER CACHAYA     001000000001       
06000000000000000000000000000000000000000036089975000000000000000000000030002707890112300000026700200770999828411100000000000000202602280000000100000000000000001010000000036089975ANA ISABEL MEDINA     001000000001       
06000000000000000000000000000000000000000083088486000000000000000000000030002713270112300000011816100770999828411100000000000000202602280000000100000000000000001010000000083088486JAVIER FERNANDEZ MANCH001000000001       
06000000000000000000000000000000000000000052634672000000000000000000000030002711010112300000013719600770999828411100000000000000202602280000000100000000000000001010000000052634672AMANDA BOCANEGRA GUZMA001000000001       
06000000000000000000000000000000000000001130652092000000000000000000000030002703270112300000023024400770999828411100000000000000202602280000000100000000000000001010000001130652092ANA MILE GARZON REYES 001000000001       
06000000000000000000000000000000000000000039552498000000000000000000000030002710050112300000021559900770999828411100000000000000202602280000000100000000000000001010000000039552498MARLENY CHAMBO TRUJILL001000000001       
06000000000000000000000000000000000000001079176778000000000000000000000030002700210112300000026886300770999828411100000000000000202602280000000100000000000000001010000001079176778LEIDY PAOLA HERRERA MO001000000001       
06000000000000000000000000000000000000000036346339000000000000000000000030002708950112300000019128700770999828411100000000000000202602280000000100000000000000001010000000036346339GLORIA DEL PILAR ADAME001000000001       
06000000000000000000000000000000000000000083092458000000000000000000000030002714870112300000020352600770999828411100000000000000202602280000000100000000000000001010000000083092458GERMAN ANDRES SALAZAR 001000000001       
06000000000000000000000000000000000000000019193483000000000000000000000030002704310112300000022445200770999828411100000000000000202602280000000100000000000000001010000000019193483SAUL PERDOMO RIVERA   001000000001       
06000000000000000000000000000000000000001079174780000000000000000000000030002699540112300000015434200770999828411100000000000000202602280000000100000000000000001010000001079174780YUMNER LEANDRO TORRES 001000000001       
06000000000000000000000000000000000000000083090514000000000000000000000030002714160112300000014019200770999828411100000000000000202602280000000100000000000000001010000000083090514ROBINSON VALDERRAMA HU001000000001       
06000000000000000000000000000000000000010814066217000000000000000000000030002702800112300000013108900770999828411100000000000000202602280000000100000000000000001010000010814066217KAREN LORENA TRUJILLO 001000000001       
06000000000000000000000000000000000000000055156298000000000000000000000030002711160112300000034134600770999828411100000000000000202602280000000100000000000000001010000000055156298BENHUR CABRERA OSPINA 001000000001       
06000000000000000000000000000000000000000036088535000000000000000000000030002707240112300000012308300770999828411100000000000000202602280000000100000000000000001010000000036088535YANETH ORTIZ BARREIRO 001000000001       
06000000000000000000000000000000000000001047437971000000000000000000000030002698160112300000014848700770999828411100000000000000202602280000000100000000000000001010000001047437971VICTOR DAVID HOYOS CRU001000000001       
06000000000000000000000000000000000000001079172192000000000000000000000030002698740112300000025717000770999828411100000000000000202602280000000100000000000000001010000001079172192BRENDA CASTRO TRUJILLO001000000001       
06000000000000000000000000000000000000000036347825000000000000000000000030002709630112300000014478000770999828411100000000000000202602280000000100000000000000001010000000036347825CARMEN JOHANNA SANCHEZ001000000001       
06000000000000000000000000000000000000000012133624000000000000000000000030002703580112300000017749800770999828411100000000000000202602280000000100000000000000001010000000012133624GILBERTO RAMIREZ BRAVO001000000001       
06000000000000000000000000000000000000000094253172000000000000000000000030002715540112300000012312900770999828411100000000000000202602280000000100000000000000001010000000094253172OSCAR HUMBERTO MEDINA 001000000001       
06000000000000000000000000000000000000000036345768000000000000000000000030002708550112300000021750200770999828411100000000000000202602280000000100000000000000001010000000036345768SANDRA PATRICIA SANCHE001000000001       
06000000000000000000000000000000000000000035489928000000000000000000000030002705950112300000004663500770999828411100000000000000202602280000000100000000000000001010000000035489928BAETRIZ OTERO DE MORA 001000000001       
06000000000000000000000000000000000000001138274370000000000000000000000030002703300112300000001995800770999828411100000000000000202602280000000100000000000000001010000001138274370JULIAN STIVEN FIERRO G001000000001       
06000000000000000000000000000000000000000083088939000000000000000000000030002713510112300000030648700770999828411100000000000000202602280000000100000000000000001010000000083088939ARNULFO POLANIA CALDER001000000001       
06000000000000000000000000000000000000001004063069000000000000000000000030002697640112300000004993300770999828411100000000000000202602280000000100000000000000001010000001004063069LUISA FERNANDA ORTIZ R001000000001       
06000000000000000000000000000000000000000004894426000000000000000000000030002710600112300000002800000770999828411100000000000000202602280000000100000000000000001010000000004894426JOSE ANCIZAR SANCHEZ P001000000001       
06000000000000000000000000000000000000001079172169000000000000000000000030002698720112300000014339400770999828411100000000000000202602280000000100000000000000001010000001079172169OSCAR FABIAN VARGAS MU001000000001       
06000000000000000000000000000000000000000083090511000000000000000000000030002714150112300000020982400770999828411100000000000000202602280000000100000000000000001010000000083090511MIGUEL ANGEL PEREZ ROD001000000001       
06000000000000000000000000000000000000000004894929000000000000000000000030002710700112300000020088300770999828411100000000000000202602280000000100000000000000001010000000004894929CARLOS FRANCISCO BERME001000000001       
06000000000000000000000000000000000000001079174567000000000000000000000030002699470112300000013515100770999828411100000000000000202602280000000100000000000000001010000001079174567LUIS IGNACIO PISCO HER001000000001       
06000000000000000000000000000000000000000083089258000000000000000000000030002713560112300000018442700770999828411100000000000000202602280000000100000000000000001010000000083089258CARLOS ALBERTO GUZMAN 001000000001       
06000000000000000000000000000000000000010769835573000000000000000000000030002698640112300000013816600770999828411100000000000000202602280000000100000000000000001010000010769835573MAYRA LORENA CRUZ CHAC001000000001       
06000000000000000000000000000000000000001079181187000000000000000000000030002701540112300000020279900770999828411100000000000000202602280000000100000000000000001010000001079181187KATERINE ORTIZ POVEDA 001000000001       
06000000000000000000000000000000000000001079172394000000000000000000000030002698810112300000029650100770999828411100000000000000202602280000000100000000000000001010000001079172394LUIS FERNEY FERNANDEZ 001000000001       
06000000000000000000000000000000000000000055067129000000000000000000000030002711080112300000025616000770999828411100000000000000202602280000000100000000000000001010000000055067129NANCY DIAZ            001000000001       
06000000000000000000000000000000000000000083086506000000000000000000000030002712480112300000019129700770999828411100000000000000202602280000000100000000000000001010000000083086506RAUL CORTES CORTES    001000000001       
06000000000000000000000000000000000000000036086823000000000000000000000030002706310112300000031974700770999828411100000000000000202602280000000100000000000000001010000000036086823FANNY GUTIERREZ CAMACH001000000001       
06000000000000000000000000000000000000001079179302000000000000000000000030002700890112300000013311500770999828411100000000000000202602280000000100000000000000001010000001079179302MANUEL ANDRES AVILES M001000000001       
06000000000000000000000000000000000000001079175318000000000000000000000030002699700112300000014664900770999828411100000000000000202602280000000100000000000000001010000001079175318JULLIE MARCELA CORTES 001000000001       
06000000000000000000000000000000000000000083090164000000000000000000000030002713970112300000013210100770999828411100000000000000202602280000000100000000000000001010000000083090164IVAN LIZCANO CASANOVA 001000000001       
06000000000000000000000000000000000000000012127519000000000000000000000030002703540112300000020445000770999828411100000000000000202602280000000100000000000000001010000000012127519JORGE ELIECER LOSADA G001000000001       
06000000000000000000000000000000000000000052382763000000000000000000000030002710960112300000030355800770999828411100000000000000202602280000000100000000000000001010000000052382763ADRIANA GUTIERREZ  BAS001000000001       
06000000000000000000000000000000000000000083090407000000000000000000000030002714080112300000004990000770999828411100000000000000202602280000000100000000000000001010000000083090407GIOVANNI MORA BUSTO   001000000001       
06000000000000000000000000000000000000000036347025000000000000000000000030002709200112300000004990000770999828411100000000000000202602280000000100000000000000001010000000036347025NATHALIA ANDREA GUTIER001000000001       
06000000000000000000000000000000000000000004894040000000000000000000000030002710540112300000004990000770999828411100000000000000202602280000000100000000000000001010000000004894040LUIS EDUARDO GUTIERREZ001000000001       
06000000000000000000000000000000000000001075520918000000000000000000000030002698600112300000002911900770999828411100000000000000202602280000000100000000000000001010000001075520918KATHERINE TRUJILLO COR001000000001       
06000000000000000000000000000000000000000036087850000000000000000000000030002715730112300000002800000770999828411100000000000000202602280000000100000000000000001010000000036087850GLADYS LOZANO         001000000001       
06000000000000000000000000000000000000000026445256000000000000000000000030002704550112300000019585300770999828411100000000000000202602280000000100000000000000001010000000026445256FLORISNAY BELTRAN ROJA001000000001       
06000000000000000000000000000000000000000036087673000000000000000000000030002706790112300000021750200770999828411100000000000000202602280000000100000000000000001010000000036087673ASENETH LEMUS MORENO  001000000001       
06000000000000000000000000000000000000001079179327000000000000000000000030002700910112300000019131100770999828411100000000000000202602280000000100000000000000001010000001079179327ERIKA ROCIO YAGUARA CU001000000001       
06000000000000000000000000000000000000000055200264000000000000000000000030002711260112300000013335900770999828411100000000000000202602280000000100000000000000001010000000055200264DECY EDERLETH PEŃA BUS001000000001       
06000000000000000000000000000000000000000083092525000000000000000000000030002714910112300000014133000770999828411100000000000000202602280000000100000000000000001010000000083092525MANOLO RAMIREZ SANCHEZ001000000001       
06000000000000000000000000000000000000001079180006000000000000000000000030002701100112300000002000000770999828411100000000000000202602280000000100000000000000001010000001079180006ERIKA CARVAJAL CALDERO001000000001       
06000000000000000000000000000000000000001144154632000000000000000000000030002715770112300000004990000770999828411100000000000000202602280000000100000000000000001010000001144154632ALVARO JAVIER LOSADA T001000000001       
06000000000000000000000000000000000000000036345350000000000000000000000030002708350112300000022824600770999828411100000000000000202602280000000100000000000000001010000000036345350EDITH  APACHE QUINTERO001000000001       
06000000000000000000000000000000000000000036345867000000000000000000000030002708620112300000035332300770999828411100000000000000202602280000000100000000000000001010000000036345867LOURDES MOLANO CACERES001000000001       
06000000000000000000000000000000000000000036087755000000000000000000000030002706840112300000019129800770999828411100000000000000202602280000000100000000000000001010000000036087755DIOCELINA ZAPATA      001000000001       
06000000000000000000000000000000000000001079172883000000000000000000000030002699000112300000002000000770999828411100000000000000202602280000000100000000000000001010000001079172883NICOL XIOMARA CAMPÓS V001000000001       
06000000000000000000000000000000000000001075258285000000000000000000000030002698410112300000006119800770999828411100000000000000202602280000000100000000000000001010000001075258285ELIZABETH MORENO ASCEN001000000001       
06000000000000000000000000000000000000000083090590000000000000000000000030002714190112300000017602000770999828411100000000000000202602280000000100000000000000001010000000083090590LINDER GIOVANNY PARADA001000000001       
06000000000000000000000000000000000000000007711044000000000000000000000030002711550112300000021749200770999828411100000000000000202602280000000100000000000000001010000000007711044FREDY ALBERTO ESPINOSA001000000001       
06000000000000000000000000000000000000001079176301000000000000000000000030002700050112300000011815400770999828411100000000000000202602280000000100000000000000001010000001079176301CINDY MARCELA VASQUEZ 001000000001       
06000000000000000000000000000000000000000094275399000000000000000000000030002715560112300000030632800770999828411100000000000000202602280000000100000000000000001010000000094275399CARLOS ANDRES SANCHEZ 001000000001       
06000000000000000000000000000000000000000083089874000000000000000000000030002713830112300000019673300770999828411100000000000000202602280000000100000000000000001010000000083089874OSCAR CUENCA MEDINA   001000000001       
06000000000000000000000000000000000000001079182213000000000000000000000030002701740112300000016446900770999828411100000000000000202602280000000100000000000000001010000001079182213KAROL YOHANA CORREDOR 001000000001       
06000000000000000000000000000000000000001079176864000000000000000000000030002700230112300000025322800770999828411100000000000000202602280000000100000000000000001010000001079176864JUAN GABRIEL CRUZ CUEL001000000001       
06000000000000000000000000000000000000000026467928000000000000000000000030002705110112300000021477800770999828411100000000000000202602280000000100000000000000001010000000026467928AMPARO GUTIERREZ      001000000001       
06000000000000000000000000000000000000000040088338000000000000000000000030002710110112300000012428700770999828411100000000000000202602280000000100000000000000001010000000040088338SHIRLEY MARTINEZ GORDI001000000001       
06000000000000000000000000000000000000000080094863000000000000000000000030002711850112300000002165400770999828411100000000000000202602280000000100000000000000001010000000080094863DIEGO FERNANDO TELLO Z001000000001       
06000000000000000000000000000000000000001079177028000000000000000000000030002700290112300000008569500770999828411100000000000000202602280000000100000000000000001010000001079177028LORENA FIGUEROA CARDOZ001000000001       
06000000000000000000000000000000000000001079186534000000000000000000000030002702580112300000004990000770999828411100000000000000202602280000000100000000000000001010000001079186534NATALIA ANDREA OLIVERO001000000001       
06000000000000000000000000000000000000000036089790000000000000000000000030002707830112300000002498100770999828411100000000000000202602280000000100000000000000001010000000036089790ESMERALDA BURGOS MONTE001000000001       
06000000000000000000000000000000000000000012130214000000000000000000000030002703560112300000020088100770999828411100000000000000202602280000000100000000000000001010000000012130214ALVARO CALDERON BERMUD001000000001       
06000000000000000000000000000000000000001079178675000000000000000000000030002700710112300000020588000770999828411100000000000000202602280000000100000000000000001010000001079178675YERALDIN VILLANUEVA CA001000000001       
06000000000000000000000000000000000000000017322283000000000000000000000030002704110112300000021949500770999828411100000000000000202602280000000100000000000000001010000000017322283LUIS ALBERTO CORTES   001000000001       
06000000000000000000000000000000000000000083091995000000000000000000000030002714700112300000026706500770999828411100000000000000202602280000000100000000000000001010000000083091995ALFREDO PARRA PAVA    001000000001       
06000000000000000000000000000000000000001079180460000000000000000000000030002701270112300000011864500770999828411100000000000000202602280000000100000000000000001010000001079180460MAIRA KATERINE RAMIREZ001000000001       
06000000000000000000000000000000000000000036347044000000000000000000000030002709220112300000013413200770999828411100000000000000202602280000000100000000000000001010000000036347044MARIA DOLORES MORALES 001000000001       
06000000000000000000000000000000000000001079183673000000000000000000000030002702070112300000004990000770999828411100000000000000202602280000000100000000000000001010000001079183673KAREN JULIETH BARRERO 001000000001       
06000000000000000000000000000000000000001079181853000000000000000000000030002701670112300000010079700770999828411100000000000000202602280000000100000000000000001010000001079181853MARIA ALEJANDRA SUAREZ001000000001       
06000000000000000000000000000000000000001079185864000000000000000000000030002702480112300000004656900770999828411100000000000000202602280000000100000000000000001010000001079185864YEISON CORTES MEDINA  001000000001       
06000000000000000000000000000000000000000014190090000000000000000000000030002703920112300000017666600770999828411100000000000000202602280000000100000000000000001010000000014190090PEDRO AUGUSTO SANDOVAL001000000001       
06000000000000000000000000000000000000000036089660000000000000000000000030002707800112300000011829100770999828411100000000000000202602280000000100000000000000001010000000036089660LUCERO NINCO BONILLA  001000000001       
06000000000000000000000000000000000000000080047482000000000000000000000030002711840112300000019128700770999828411100000000000000202602280000000100000000000000001010000000080047482GIOVANNY MONTEALEGRE L001000000001       
06000000000000000000000000000000000000000036088251000000000000000000000030002707050112300000026706500770999828411100000000000000202602280000000100000000000000001010000000036088251LEONOR PERDOMO SALAZAR001000000001       
06000000000000000000000000000000000000000093451867000000000000000000000030002715520112300000014968600770999828411100000000000000202602280000000100000000000000001010000000093451867ARLEX RINCON RODRIGUEZ001000000001       
06000000000000000000000000000000000000000036088604000000000000000000000030002707300112300000043484500770999828411100000000000000202602280000000100000000000000001010000000036088604HERMINDA CORTES HERNAN001000000001       
06000000000000000000000000000000000000000083089756000000000000000000000030002713740112300000004399800770999828411100000000000000202602280000000100000000000000001010000000083089756RULBERTH OSORIO TRUJIL001000000001       
06000000000000000000000000000000000000000083090898000000000000000000000030002714290112300000020989900770999828411100000000000000202602280000000100000000000000001010000000083090898GUSTAVO ARTURO BOCANEG001000000001       
06000000000000000000000000000000000000000083088647000000000000000000000030002713330112300000004990000770999828411100000000000000202602280000000100000000000000001010000000083088647JAIME DUQUE FRANCO    001000000001       
06000000000000000000000000000000000000001003866507000000000000000000000030002697520112300000002800000770999828411100000000000000202602280000000100000000000000001010000001003866507LAURA DANIELA BURGOS J001000000001       
06000000000000000000000000000000000000001081157268000000000000000000000030002702770112300000008382900770999828411100000000000000202602280000000100000000000000001010000001081157268JUAN SALVADOR PIŃEROS 001000000001       
06000000000000000000000000000000000000001079173055000000000000000000000030002699040112300000004990000770999828411100000000000000202602280000000100000000000000001010000001079173055YHOJAN STIVEN ROJAS GA001000000001       
06000000000000000000000000000000000000001079179335000000000000000000000030002700920112300000005089700770999828411100000000000000202602280000000100000000000000001010000001079179335CRISTIAN ANDRES SERRAT001000000001       
06000000000000000000000000000000000000000036347545000000000000000000000030002709410112300000021559900770999828411100000000000000202602280000000100000000000000001010000000036347545LEIDY MEDINA GARCIA   001000000001       
06000000000000000000000000000000000000001079180095000000000000000000000030002701130112300000013316700770999828411100000000000000202602280000000100000000000000001010000001079180095YESENIA ANDREA MONTEAL001000000001       
06000000000000000000000000000000000000000083085002000000000000000000000030002712000112300000004990000770999828411100000000000000202602280000000100000000000000001010000000083085002HIPOLITO GUTIERREZ CAV001000000001       
06000000000000000000000000000000000000000036346628000000000000000000000030002709030112300000004990000770999828411100000000000000202602280000000100000000000000001010000000036346628LIDA CONSTANZA RAMIREZ001000000001       
06000000000000000000000000000000000000000036347916000000000000000000000030002709740112300000005990000770999828411100000000000000202602280000000100000000000000001010000000036347916MARIA MERCEDES PEŃA PU001000000001       
06000000000000000000000000000000000000000083092447000000000000000000000030002714860112300000013822200770999828411100000000000000202602280000000100000000000000001010000000083092447ULBANO BARRIOS PERDOMO001000000001       
06000000000000000000000000000000000000001079181285000000000000000000000030002701600112300000002039900770999828411100000000000000202602280000000100000000000000001010000001079181285WITHNY LORAYNE PERDOMO001000000001       
06000000000000000000000000000000000000000026467641000000000000000000000030002705030112300000002800000770999828411100000000000000202602280000000100000000000000001010000000026467641CECILIA FERNANDEZ     001000000001       
06000000000000000000000000000000000000001079182602000000000000000000000030002701850112300000004823200770999828411100000000000000202602280000000100000000000000001010000001079182602DANIELA MURCIA OSPITIA001000000001       
06000000000000000000000000000000000000000028551115000000000000000000000030002705720112300000037211700770999828411100000000000000202602280000000100000000000000001010000000028551115LUZ DARY CAICEDO      001000000001       
06000000000000000000000000000000000000000083091519000000000000000000000030002714510112300000018616500770999828411100000000000000202602280000000100000000000000001010000000083091519LEOPOLDO ALARCON GUTIE001000000001       
06000000000000000000000000000000000000000083091906000000000000000000000030002714670112300000013934400770999828411100000000000000202602280000000100000000000000001010000000083091906JULIO CESAR PATIŃO    001000000001       
06000000000000000000000000000000000000001004062968000000000000000000000030002697620112300000007990000770999828411100000000000000202602280000000100000000000000001010000001004062968JHOAN SEBASTIAN CORDOB001000000001       
06000000000000000000000000000000000000000083092535000000000000000000000030002714920112300000002967900770999828411100000000000000202602280000000100000000000000001010000000083092535URIEL ALBERTO DIAZ RAM001000000001       
06000000000000000000000000000000000000000036086118000000000000000000000030002706060112300000005661300770999828411100000000000000202602280000000100000000000000001010000000036086118CONSUELO ARDILA FLORES001000000001       
06000000000000000000000000000000000000000036346150000000000000000000000030002708790112300000005920900770999828411100000000000000202602280000000100000000000000001010000000036346150YANETH CALIMAN PERDOMO001000000001       
06000000000000000000000000000000000000001079177258000000000000000000000030002700330112300000005654800770999828411100000000000000202602280000000100000000000000001010000001079177258DANIEL HERNANDO PATIŃO001000000001       
06000000000000000000000000000000000000000026467283000000000000000000000030002704870112300000004990000770999828411100000000000000202602280000000100000000000000001010000000026467283MARIA ROSALBA SANCHEZ 001000000001       
06000000000000000000000000000000000000001079173989000000000000000000000030002699300112300000004989600770999828411100000000000000202602280000000100000000000000001010000001079173989JUAN DAVID MANCHOLA BA001000000001       
06000000000000000000000000000000000000001079174699000000000000000000000030002699490112300000004990000770999828411100000000000000202602280000000100000000000000001010000001079174699KELLY YURANI CHALA OTE001000000001       
06000000000000000000000000000000000000000004893753000000000000000000000030002710470112300000004990000770999828411100000000000000202602280000000100000000000000001010000000004893753RAFAEL RIOS           001000000001       
06000000000000000000000000000000000000001079183355000000000000000000000030002702000112300000003659000770999828411100000000000000202602280000000100000000000000001010000001079183355EDNA CATERINE SUAREZ M001000000001       
06000000000000000000000000000000000000001079186302000000000000000000000030002702530112300000004990000770999828411100000000000000202602280000000100000000000000001010000001079186302JESUS ALBERTO CORDOBA 001000000001       
06000000000000000000000000000000000000000012325296000000000000000000000030002703890112300000016531700770999828411100000000000000202602280000000100000000000000001010000000012325296FRANCISCO JAVIER DIVAS001000000001       
06000000000000000000000000000000000000000045536537000000000000000000000030002710310112300000018443600770999828411100000000000000202602280000000100000000000000001010000000045536537ANA RAQUEL JARAMILLO  001000000001       
06000000000000000000000000000000000000001079173704000000000000000000000030002699240112300000013113300770999828411100000000000000202602280000000100000000000000001010000001079173704MARCELA SANCHEZ VALDER001000000001       
06000000000000000000000000000000000000000041756763000000000000000000000030002710270112300000011728800770999828411100000000000000202602280000000100000000000000001010000000041756763MARIA MERY SALAZAR DUR001000000001       
06000000000000000000000000000000000000001079179641000000000000000000000030002701020112300000013499800770999828411100000000000000202602280000000100000000000000001010000001079179641ALEXANDRA BAUTISTA MON001000000001       
06000000000000000000000000000000000000000083091271000000000000000000000030002714420112300000024469100770999828411100000000000000202602280000000100000000000000001010000000083091271NORBERTO FIERRO PANTEV001000000001       
06000000000000000000000000000000000000001079173212000000000000000000000030002699100112300000002805400770999828411100000000000000202602280000000100000000000000001010000001079173212YASMIR CHALA CASAS    001000000001       
06000000000000000000000000000000000000001079173499000000000000000000000030002699160112300000007990000770999828411100000000000000202602280000000100000000000000001010000001079173499JOSEPH ALEJANDRO TRUJI001000000001       
06000000000000000000000000000000000000000083089873000000000000000000000030002713820112300000004990000770999828411100000000000000202602280000000100000000000000001010000000083089873ROGELIO MEDINA        001000000001       
06000000000000000000000000000000000000001004063190000000000000000000000030002697660112300000009744100770999828411100000000000000202602280000000100000000000000001010000001004063190MARIA DE LOS ANGELES M001000000001       
06000000000000000000000000000000000000001079172807000000000000000000000030002698950112300000008567700770999828411100000000000000202602280000000100000000000000001010000001079172807RONAL HAIR LOSADA SAND001000000001       
06000000000000000000000000000000000000000036150953000000000000000000000030002707980112300000002800000770999828411100000000000000202602280000000100000000000000001010000000036150953CARMENZA MONTENEGRO   001000000001       
06000000000000000000000000000000000000001075300570000000000000000000000030002698560112300000007990000770999828411100000000000000202602280000000100000000000000001010000001075300570LIANA CECILIA RUIZ SAA001000000001       
06000000000000000000000000000000000000000041108558000000000000000000000030002710250112300000011766200770999828411100000000000000202602280000000100000000000000001010000000041108558MARIA ESPERANZA ARCILA001000000001       
06000000000000000000000000000000000000000026468636000000000000000000000030002715650112300000002800000770999828411100000000000000202602280000000100000000000000001010000000026468636MARIA INES CUELLAR    001000000001       
06000000000000000000000000000000000000000083237144000000000000000000000030002715370112300000002000000770999828411100000000000000202602280000000100000000000000001010000000083237144MARINO CHIMBACO VARGAS001000000001       
06000000000000000000000000000000000000000036347447000000000000000000000030002709380112300000005488500770999828411100000000000000202602280000000100000000000000001010000000036347447NYDIA QUINTERO OSORIO 001000000001       
06000000000000000000000000000000000000000007148115000000000000000000000030002711360112300000005089700770999828411100000000000000202602280000000100000000000000001010000000007148115NORBELIS ANNAXIER OSOR001000000001       
06000000000000000000000000000000000000001079176797000000000000000000000030002700220112300000004990000770999828411100000000000000202602280000000100000000000000001010000001079176797SANTIAGO JOSE ARDILA E001000000001       
06000000000000000000000000000000000000001079412324000000000000000000000030002702700112300000004992200770999828411100000000000000202602280000000100000000000000001010000001079412324ZAYDI LORENA ORTIZ GAR001000000001       
06000000000000000000000000000000000000000066809128000000000000000000000030002711340112300000007990000770999828411100000000000000202602280000000100000000000000001010000000066809128MARIA FERNANDA TRUJILL001000000001       
06000000000000000000000000000000000000001079179988000000000000000000000030002701090112300000004990000770999828411100000000000000202602280000000100000000000000001010000001079179988EDWIN ANDRES PEREZ MED001000000001       
06000000000000000000000000000000000000001079181987000000000000000000000030002701700112300000004989600770999828411100000000000000202602280000000100000000000000001010000001079181987ANGEL ANDRES SANCHEZ P001000000001       
06000000000000000000000000000000000000000051919840000000000000000000000030002710850112300000003593100770999828411100000000000000202602280000000100000000000000001010000000051919840OLGA NELLY ALVAREZ GIR001000000001       
06000000000000000000000000000000000000000083091192000000000000000000000030002714400112300000008722100770999828411100000000000000202602280000000100000000000000001010000000083091192WILFREDO BOLAŃOS GUTIE001000000001       
06000000000000000000000000000000000000000040732890000000000000000000000030002710200112300000004990000770999828411100000000000000202602280000000100000000000000001010000000040732890MARTHA AURORA CORREA  001000000001       
06000000000000000000000000000000000000000036346239000000000000000000000030002715760112300000004990000770999828411100000000000000202602280000000100000000000000001010000000036346239NORMA CONSTANZA MORA B001000000001       
06000000000000000000000000000000000000001026566113000000000000000000000030002698030112300000005001700770999828411100000000000000202602280000000100000000000000001010000001026566113NORIDA CASANOVA VERA  001000000001       
06000000000000000000000000000000000000001079186374000000000000000000000030002702560112300000004990000770999828411100000000000000202602280000000100000000000000001010000001079186374ALEXANDRA CLAROS MURCI001000000001       
06000000000000000000000000000000000000000083093297000000000000000000000030002715170112300000004990000770999828411100000000000000202602280000000100000000000000001010000000083093297HEYDER FABIAN PERDOMO 001000000001       
06000000000000000000000000000000000000001079176647000000000000000000000030002700150112300000001762900770999828411100000000000000202602280000000100000000000000001010000001079176647DANNA SOFIA HERNANDEZ 001000000001       
06000000000000000000000000000000000000001004063354000000000000000000000030002697670112300000007025600770999828411100000000000000202602280000000100000000000000001010000001004063354CRISTIAN ANDRES AVILES001000000001       
06000000000000000000000000000000000000001075296598000000000000000000000030002698540112300000004990000770999828411100000000000000202602280000000100000000000000001010000001075296598YEIRA ALEJANDRA LEIVA 001000000001       
06000000000000000000000000000000000000001079179890000000000000000000000030002701060112300000004990000770999828411100000000000000202602280000000100000000000000001010000001079179890WENDER LORAINE VIEDA F001000000001       
06000000000000000000000000000000000000001079176673000000000000000000000030002700170112300000004993900770999828411100000000000000202602280000000100000000000000001010000001079176673VIVIANA FERLEY FALLA C001000000001       
06000000000000000000000000000000000000001118027132000000000000000000000030002703140112300000003825300770999828411100000000000000202602280000000100000000000000001010000001118027132YEDMY SANCHEZ SUAREZ  001000000001       
06000000000000000000000000000000000000001032388756000000000000000000000030002698100112300000004990000770999828411100000000000000202602280000000100000000000000001010000001032388756YOHANA CRUZ LIZCANO   001000000001       
06000000000000000000000000000000000000000026468405000000000000000000000030002705270112300000004990000770999828411100000000000000202602280000000100000000000000001010000000026468405CELA GONZALEZ MUŃOZ   001000000001       
06000000000000000000000000000000000000000083086087000000000000000000000030002712350112300000003825300770999828411100000000000000202602280000000100000000000000001010000000083086087JULIO CESAR RADA NAŃEZ001000000001       
06000000000000000000000000000000000000000083087915000000000000000000000030002713060112300000004324300770999828411100000000000000202602280000000100000000000000001010000000083087915LIBARDO MURCIA        001000000001       
06000000000000000000000000000000000000000083091562000000000000000000000030002714530112300000025415400770999828411100000000000000202602280000000100000000000000001010000000083091562RENE BARCO CARDENAS   001000000001       
06000000000000000000000000000000000000000083092107000000000000000000000030002714740112300000012011700770999828411100000000000000202602280000000100000000000000001010000000083092107ESNEIDER CORTES ANDRAD001000000001       
06000000000000000000000000000000000000001007503340000000000000000000000030002697860112300000004990000770999828411100000000000000202602280000000100000000000000001010000001007503340EVENLY POLANIA CARDOZO001000000001       
06000000000000000000000000000000000000000036347841000000000000000000000030002709650112300000004990000770999828411100000000000000202602280000000100000000000000001010000000036347841LUZ MIREYA PERDOMO YAS001000000001       
06000000000000000000000000000000000000000083087902000000000000000000000030002713040112300000007575200770999828411100000000000000202602280000000100000000000000001010000000083087902CARLOS ALBERTO RODRIGU001000000001       
06000000000000000000000000000000000000000083085682000000000000000000000030002712180112300000021697800770999828411100000000000000202602280000000100000000000000001010000000083085682EDGAR HUMBERTO GARCIA 001000000001       
06000000000000000000000000000000000000000036346451000000000000000000000030002708980112300000020342700770999828411100000000000000202602280000000100000000000000001010000000036346451SHIRLY LLANOS PERDOMO 001000000001       
06000000000000000000000000000000000000000083092812000000000000000000000030002715040112300000012159900770999828411100000000000000202602280000000100000000000000001010000000083092812JOSE LUIS PERDOMO     001000000001       
06000000000000000000000000000000000000000026467563000000000000000000000030002704990112300000024518900770999828411100000000000000202602280000000100000000000000001010000000026467563MARIA NURY  MONTENEGRO001000000001       
06000000000000000000000000000000000000001110462285000000000000000000000030002703010112300000020342700770999828411100000000000000202602280000000100000000000000001010000001110462285MILTON DURAN RESTREPO 001000000001       
06000000000000000000000000000000000000001079175316000000000000000000000030002699690112300000011736000770999828411100000000000000202602280000000100000000000000001010000001079175316PAOLA FERNANDEZ MANCHO001000000001       
06000000000000000000000000000000000000000083085324000000000000000000000030002712090112300000019059700770999828411100000000000000202602280000000100000000000000001010000000083085324JAIRO BERMEO          001000000001       
06000000000000000000000000000000000000001079176367000000000000000000000030002700090112300000021596400770999828411100000000000000202602280000000100000000000000001010000001079176367JUAN GABRIEL CRUZ MEDI001000000001       
06000000000000000000000000000000000000000083092710000000000000000000000030002714990112300000013566800770999828411100000000000000202602280000000100000000000000001010000000083092710ROBINSON PALOMARES    001000000001       
06000000000000000000000000000000000000001079175568000000000000000000000030002699770112300000002145800770999828411100000000000000202602280000000100000000000000001010000001079175568JUAN ESTEBAN NARVAEZ A001000000001       
06000000000000000000000000000000000000001079174240000000000000000000000030002699390112300000006881400770999828411100000000000000202602280000000100000000000000001010000001079174240ANDREA QUINTERO       001000000001       
06000000000000000000000000000000000000000083090196000000000000000000000030002714000112300000004990000770999828411100000000000000202602280000000100000000000000001010000000083090196DIDIER CUADRADO HERNAN001000000001       
06000000000000000000000000000000000000000083093106000000000000000000000030002715110112300000019128700770999828411100000000000000202602280000000100000000000000001010000000083093106WILSON OSORIO RODRIGUE001000000001       
06000000000000000000000000000000000000000083087996000000000000000000000030002713090112300000002800000770999828411100000000000000202602280000000100000000000000001010000000083087996HECTOR VIDAL SERRANO  001000000001       
06000000000000000000000000000000000000000036345228000000000000000000000030002708280112300000012707300770999828411100000000000000202602280000000100000000000000001010000000036345228DORIS CAMACHO LEAL    001000000001       
06000000000000000000000000000000000000001075253862000000000000000000000030002698400112300000021797100770999828411100000000000000202602280000000100000000000000001010000001075253862DALY ROSARIO ROMERO MU001000000001       
06000000000000000000000000000000000000000036088892000000000000000000000030002707410112300000014028900770999828411100000000000000202602280000000100000000000000001010000000036088892MARTHA LILIANA BUSTOS 001000000001       
06000000000000000000000000000000000000000079296391000000000000000000000030002711680112300000021437100770999828411100000000000000202602280000000100000000000000001010000000079296391FABIO HUMBERTO HERRERA001000000001       
06000000000000000000000000000000000000000052344449000000000000000000000030002710950112300000022391400770999828411100000000000000202602280000000100000000000000001010000000052344449LUCIA LINARES         001000000001       
06000000000000000000000000000000000000000083085688000000000000000000000030002712190112300000020971600770999828411100000000000000202602280000000100000000000000001010000000083085688NARCES GUTIERREZ VEGA 001000000001       
06000000000000000000000000000000000000000007708914000000000000000000000030002711530112300000019028700770999828411100000000000000202602280000000100000000000000001010000000007708914ALEXANDER AVENDAŃO VAL001000000001       
06000000000000000000000000000000000000000063539841000000000000000000000030002711320112300000013822200770999828411100000000000000202602280000000100000000000000001010000000063539841YENNY JASMIN ARDILA DU001000000001       
06000000000000000000000000000000000000000083085928000000000000000000000030002712280112300000025619800770999828411100000000000000202602280000000100000000000000001010000000083085928HUGO FERNEY CUELLAR   001000000001       
06000000000000000000000000000000000000000083086601000000000000000000000030002712560112300000014233400770999828411100000000000000202602280000000100000000000000001010000000083086601FABIO LEMUS           001000000001       
06000000000000000000000000000000000000001079175066000000000000000000000030002699600112300000005049400770999828411100000000000000202602280000000100000000000000001010000001079175066YURLEY RAMIREZ AVILA  001000000001       
06000000000000000000000000000000000000001004063688000000000000000000000030002697720112300000002800000770999828411100000000000000202602280000000100000000000000001010000001004063688ANYI KATERINE CAMACHO 001000000001       
06000000000000000000000000000000000000000194061671000000000000000000000030002704350112300000002000800770999828411100000000000000202602280000000100000000000000001010000000194061671REINALDO JOSE RIVERA R001000000001       
06000000000000000000000000000000000000000015380121000000000000000000000030002704010112300000002003900770999828411100000000000000202602280000000100000000000000001010000000015380121ORLANDO DE JESUS TORRE001000000001       
06000000000000000000000000000000000000000083089404000000000000000000000030002713620112300000002800000770999828411100000000000000202602280000000100000000000000001010000000083089404FARITH GARRIDO GARCIA 001000000001       
06000000000000000000000000000000000000000040774862000000000000000000000030002710220112300000034300900770999828411100000000000000202602280000000100000000000000001010000000040774862JAIDY PEREZ DURAN     001000000001       
06000000000000000000000000000000000000000079919811000000000000000000000030002711790112300000025666600770999828411100000000000000202602280000000100000000000000001010000000079919811ORLANDO MOTTA GUTIERRE001000000001       
06000000000000000000000000000000000000001079173624000000000000000000000030002699200112300000013834700770999828411100000000000000202602280000000100000000000000001010000001079173624CRISTIAM MAURICIO POLA001000000001       
06000000000000000000000000000000000000000083088883000000000000000000000030002713470112300000004039900770999828411100000000000000202602280000000100000000000000001010000000083088883EYISMETH POLANCO TOVAR001000000001       
06000000000000000000000000000000000000001079181133000000000000000000000030002701520112300000004990000770999828411100000000000000202602280000000100000000000000001010000001079181133MAIDY LORENA CORREDOR 001000000001       
06000000000000000000000000000000000000000083235530000000000000000000000030002715360112300000004990000770999828411100000000000000202602280000000100000000000000001010000000083235530ALIRIO MORA HERNANDEZ 001000000001       
06000000000000000000000000000000000000001079173325000000000000000000000030002699130112300000019128700770999828411100000000000000202602280000000100000000000000001010000001079173325MARLY PERDOMO FARFAN  001000000001       
06000000000000000000000000000000000000000036087980000000000000000000000030002706930112300000002800000770999828411100000000000000202602280000000100000000000000001010000000036087980LUZ MARIA RIVERA GOMEZ001000000001       
06000000000000000000000000000000000000000083089679000000000000000000000030002713720112300000009692900770999828411100000000000000202602280000000100000000000000001010000000083089679HENRY SANCHEZ         001000000001       
06000000000000000000000000000000000000000052313269000000000000000000000030002710930112300000011815100770999828411100000000000000202602280000000100000000000000001010000000052313269JACKELINE RAMIREZ PATI001000000001       
06000000000000000000000000000000000000000036089150000000000000000000000030002707530112300000037233600770999828411100000000000000202602280000000100000000000000001010000000036089150YICELA IBATA CUENCA   001000000001       
06000000000000000000000000000000000000000083093392000000000000000000000030002715230112300000003992400770999828411100000000000000202602280000000100000000000000001010000000083093392DIDIER JOVEN CHAUX    001000000001       
06000000000000000000000000000000000000001079179308000000000000000000000030002700900112300000002803700770999828411100000000000000202602280000000100000000000000001010000001079179308GREICY PATRICIA AVILA 001000000001       
06000000000000000000000000000000000000000083088133000000000000000000000030002713150112300000004990000770999828411100000000000000202602280000000100000000000000001010000000083088133FERNANDO ROJAS        001000000001       
06000000000000000000000000000000000000001079179092000000000000000000000030002700850112300000004990000770999828411100000000000000202602280000000100000000000000001010000001079179092MILTON ALEXANDER FERNA001000000001       
06000000000000000000000000000000000000000001444769000000000000000000000030002703990112300000002800000770999828411100000000000000202602280000000100000000000000001010000000001444769BENJAMIN PENA         001000000001       
06000000000000000000000000000000000000000036348129000000000000000000000030002709850112300000005190100770999828411100000000000000202602280000000100000000000000001010000000036348129YULY TATIANA GARCIA SI001000000001       
06000000000000000000000000000000000000001007503173000000000000000000000030002697840112300000011099300770999828411100000000000000202602280000000100000000000000001010000001007503173DARLY VANESA ZAMORA VE001000000001       
06000000000000000000000000000000000000001079177647000000000000000000000030002700430112300000013853700770999828411100000000000000202602280000000100000000000000001010000001079177647YEDINSO BERMEO RAMIREZ001000000001       
06000000000000000000000000000000000000000026467822000000000000000000000030002715670112300000004990000770999828411100000000000000202602280000000100000000000000001010000000026467822MARIA ORFILIA FIERRO C001000000001       
06000000000000000000000000000000000000000083093237000000000000000000000030002715150112300000007186300770999828411100000000000000202602280000000100000000000000001010000000083093237MARCO TULIO MONSALVE G001000000001       
06000000000000000000000000000000000000000083088885000000000000000000000030002713480112300000026186900770999828411100000000000000202602280000000100000000000000001010000000083088885ABEL TRUJILLO BUSTOS  001000000001       
06000000000000000000000000000000000000001079172781000000000000000000000030002698940112300000007990000770999828411100000000000000202602280000000100000000000000001010000001079172781JHOAN SEBASTIAN BERMEO001000000001       
06000000000000000000000000000000000000000012258077000000000000000000000030002715810112300000004990000770999828411100000000000000202602280000000100000000000000001010000000012258077HILDER LIZCANO MARIN  001000000001       
06000000000000000000000000000000000000001079176506000000000000000000000030002700100112300000002993700770999828411100000000000000202602280000000100000000000000001010000001079176506OSCAR LEONARDO LEMUS  001000000001       
06000000000000000000000000000000000000000036171693000000000000000000000030002708080112300000004990000770999828411100000000000000202602280000000100000000000000001010000000036171693CARMEN AURORA JIMENEZ 001000000001       
06000000000000000000000000000000000000001075283914000000000000000000000030002698500112300000004990000770999828411100000000000000202602280000000100000000000000001010000001075283914MARLY YULIETH CEBALLOS001000000001       
06000000000000000000000000000000000000000028698628000000000000000000000030002705740112300000004990000770999828411100000000000000202602280000000100000000000000001010000000028698628LUZ MARY ORTEGON RAMIR001000000001       
06000000000000000000000000000000000000001079183511000000000000000000000030002702030112300000008567700770999828411100000000000000202602280000000100000000000000001010000001079183511LAURA MARIA MEDINA FLO001000000001       
06000000000000000000000000000000000000000036087532000000000000000000000030002706670112300000005109700770999828411100000000000000202602280000000100000000000000001010000000036087532MARIA AMPARO PUENTES V001000000001       
06000000000000000000000000000000000000000016664683000000000000000000000030002704070112300000004324300770999828411100000000000000202602280000000100000000000000001010000000016664683TEOFILO PERDOMO       001000000001       
06000000000000000000000000000000000000000083085712000000000000000000000030002712200112300000004990000770999828411100000000000000202602280000000100000000000000001010000000083085712PEDRO FIERRO CHACON   001000000001       
06000000000000000000000000000000000000000079636135000000000000000000000030002711720112300000004990000770999828411100000000000000202602280000000100000000000000001010000000079636135RAUL LOSADA CERQUERA  001000000001       
06000000000000000000000000000000000000000036347642000000000000000000000030002709530112300000011099700770999828411100000000000000202602280000000100000000000000001010000000036347642JAKELINE CALIMAN SEPUL001000000001       
06000000000000000000000000000000000000001079175646000000000000000000000030002699810112300000004990000770999828411100000000000000202602280000000100000000000000001010000001079175646CINDY LORENA VARGAS MO001000000001       
06000000000000000000000000000000000000001004062047000000000000000000000030002697560112300000005589300770999828411100000000000000202602280000000100000000000000001010000001004062047ADRIANA MARGARITA RAMI001000000001       
06000000000000000000000000000000000000000036088305000000000000000000000030002707100112300000005089700770999828411100000000000000202602280000000100000000000000001010000000036088305LILIA CELIS MANJARRES 001000000001       
06000000000000000000000000000000000000000083087261000000000000000000000030002712830112300000004990000770999828411100000000000000202602280000000100000000000000001010000000083087261EDUARDO FIERRO MEDINA 001000000001       
06000000000000000000000000000000000000000036348108000000000000000000000030002709840112300000004990000770999828411100000000000000202602280000000100000000000000001010000000036348108MARCELA EMILIA MURCIA 001000000001       
06000000000000000000000000000000000000000026458909000000000000000000000030002704590112300000020653100770999828411100000000000000202602280000000100000000000000001010000000026458909FLORALBA PERDOMO VILLA001000000001       
06000000000000000000000000000000000000000040731057000000000000000000000030002710190112300000006296400770999828411100000000000000202602280000000100000000000000001010000000040731057ELISABETH SANCHEZ CARD001000000001       
06000000000000000000000000000000000000000083088435000000000000000000000030002713260112300000013724800770999828411100000000000000202602280000000100000000000000001010000000083088435HEBERT ROCHA          001000000001       
06000000000000000000000000000000000000001075283307000000000000000000000030002698490112300000004990000770999828411100000000000000202602280000000100000000000000001010000001075283307PABLO GIORDY SANCHEZ S001000000001       
06000000000000000000000000000000000000000083089544000000000000000000000030002713660112300000004992900770999828411100000000000000202602280000000100000000000000001010000000083089544WILMAN OMAR MEDINA SAR001000000001       
06000000000000000000000000000000000000001079176568000000000000000000000030002700140112300000007186300770999828411100000000000000202602280000000100000000000000001010000001079176568ERLEY CAMILO HERRERA M001000000001       
06000000000000000000000000000000000000000083087579000000000000000000000030002712950112300000002911900770999828411100000000000000202602280000000100000000000000001010000000083087579WILSON SANCHEZ SANCHEZ001000000001       
06000000000000000000000000000000000000000036087727000000000000000000000030002706830112300000004990000770999828411100000000000000202602280000000100000000000000001010000000036087727BARBARA FIGUEROA OTALO001000000001       
06000000000000000000000000000000000000001131109103000000000000000000000030002703280112300000008573100770999828411100000000000000202602280000000100000000000000001010000001131109103FABIAN ENRIQUE PEDROZA001000000001       
06000000000000000000000000000000000000001004061933000000000000000000000030002697550112300000022394400770999828411100000000000000202602280000000100000000000000001010000001004061933JULIA CAROLINA AVILA M001000000001       
06000000000000000000000000000000000000000036346059000000000000000000000030002708750112300000004989600770999828411100000000000000202602280000000100000000000000001010000000036346059MERCEDES CASANOVA RODR001000000001       
06000000000000000000000000000000000000001079186741000000000000000000000030002702620112300000003326400770999828411100000000000000202602280000000100000000000000001010000001079186741MARIA CAMILA RAMIREZ S001000000001       
06000000000000000000000000000000000000000007699210000000000000000000000030002711480112300000013261500770999828411100000000000000202602280000000100000000000000001010000000007699210ANGEL OVIEDO BERNAL TO001000000001       
06000000000000000000000000000000000000000007705227000000000000000000000030002711510112300000004324300770999828411100000000000000202602280000000100000000000000001010000000007705227ANGELMIRO QUINTERO GAS001000000001       
06000000000000000000000000000000000000001079182061000000000000000000000030002715680112300000002800000770999828411100000000000000202602280000000100000000000000001010000001079182061ANGIE LORENA AVILA FIE001000000001       
06000000000000000000000000000000000000001105686918000000000000000000000030002702970112300000002000000770999828411100000000000000202602280000000100000000000000001010000001105686918HERMES ALEXIS HERNANDE001000000001       
06000000000000000000000000000000000000001079179600000000000000000000000030002700980112300000022974900770999828411100000000000000202602280000000100000000000000001010000001079179600LEIDY TATIANA MEDINA C001000000001       
06000000000000000000000000000000000000001075275734000000000000000000000030002698460112300000018085800770999828411100000000000000202602280000000100000000000000001010000001075275734JENNIFER FERNANDA ROJA001000000001       
06000000000000000000000000000000000000000036346533000000000000000000000030002709000112300000007241900770999828411100000000000000202602280000000100000000000000001010000000036346533AGLAURA PATRICIA DIAZ 001000000001       
06000000000000000000000000000000000000001079183026000000000000000000000030002701920112300000022002100770999828411100000000000000202602280000000100000000000000001010000001079183026YENIFER QUIMBAYA SARMI001000000001       
06000000000000000000000000000000000000000083093336000000000000000000000030002715200112300000033917400770999828411100000000000000202602280000000100000000000000001010000000083093336NELSON LOPEZ CAMPO    001000000001       
06000000000000000000000000000000000000000083093097000000000000000000000030002715100112300000020920500770999828411100000000000000202602280000000100000000000000001010000000083093097WILSON CUELLAR LEAL   001000000001       
06000000000000000000000000000000000000001079178264000000000000000000000030002700570112300000007602300770999828411100000000000000202602280000000100000000000000001010000001079178264KARLA YISELLA PIAMBA C001000000001       
06000000000000000000000000000000000000000083093118000000000000000000000030002715120112300000020501100770999828411100000000000000202602280000000100000000000000001010000000083093118ALEXANDER QUINTERO OSO001000000001       
06000000000000000000000000000000000000001110444189000000000000000000000030002702990112300000030837400770999828411100000000000000202602280000000100000000000000001010000001110444189MARIA CONSTANZA RINCON001000000001       
06000000000000000000000000000000000000000036345976000000000000000000000030002708700112300000022324900770999828411100000000000000202602280000000100000000000000001010000000036345976GINA MABEL BARCO CARDE001000000001       
06000000000000000000000000000000000000000036088167000000000000000000000030002707020112300000011979000770999828411100000000000000202602280000000100000000000000001010000000036088167NELCY GARCIA LOSADA   001000000001       
06000000000000000000000000000000000000000083089696000000000000000000000030002713730112300000012707500770999828411100000000000000202602280000000100000000000000001010000000083089696MIGUEL GARCIA LOSADA  001000000001       
06000000000000000000000000000000000000000012252207000000000000000000000030002703820112300000012312400770999828411100000000000000202602280000000100000000000000001010000000012252207JORGE RAMOS MUŃOZ     001000000001       
06000000000000000000000000000000000000001079178307000000000000000000000030002700590112300000007037900770999828411100000000000000202602280000000100000000000000001010000001079178307DEIMAR ALEXIS GUARACA 001000000001       
06000000000000000000000000000000000000000036087661000000000000000000000030002706780112300000002800000770999828411100000000000000202602280000000100000000000000001010000000036087661NANCY CALDERON IBATA  001000000001       
06000000000000000000000000000000000000000036089068000000000000000000000030002707490112300000008623600770999828411100000000000000202602280000000100000000000000001010000000036089068ALICIA TOVAR ANACONA  001000000001       
06000000000000000000000000000000000000001080297263000000000000000000000030002702720112300000010092900770999828411100000000000000202602280000000100000000000000001010000001080297263ANYIE YUREIDY RODRIGUE001000000001       
06000000000000000000000000000000000000000055177024000000000000000000000030002715740112300000004990000770999828411100000000000000202602280000000100000000000000001010000000055177024GILMA LOSADA TOVAR    001000000001       
06000000000000000000000000000000000000000036089588000000000000000000000030002707740112300000004989600770999828411100000000000000202602280000000100000000000000001010000000036089588CLARA INES CASANOVA RO001000000001       
06000000000000000000000000000000000000000036346723000000000000000000000030002709060112300000004990000770999828411100000000000000202602280000000100000000000000001010000000036346723YOMAIRA MONSALVE GOMEZ001000000001       
06000000000000000000000000000000000000000052782315000000000000000000000030002711030112300000004990000770999828411100000000000000202602280000000100000000000000001010000000052782315MARISELA ROMERO ROJAS 001000000001       
06000000000000000000000000000000000000001079181549000000000000000000000030002701630112300000004990000770999828411100000000000000202602280000000100000000000000001010000001079181549PAOLA ANDREA BARREIRO 001000000001       
06000000000000000000000000000000000000000036346193000000000000000000000030002708810112300000004990000770999828411100000000000000202602280000000100000000000000001010000000036346193GLORIA PATRICIA MURCIA001000000001       
06000000000000000000000000000000000000001079184334000000000000000000000030002702220112300000002800000770999828411100000000000000202602280000000100000000000000001010000001079184334SINDY PAOLA CRUZ LEAL 001000000001       
06000000000000000000000000000000000000000036088101000000000000000000000030002706980112300000025611300770999828411100000000000000202602280000000100000000000000001010000000036088101ANA SILVIA TOVAR CORTE001000000001       
06000000000000000000000000000000000000001075243731000000000000000000000030002698360112300000004990000770999828411100000000000000202602280000000100000000000000001010000001075243731SINDY CAROLINA CUENCA 001000000001       
06000000000000000000000000000000000000000036088521000000000000000000000030002707220112300000004990000770999828411100000000000000202602280000000100000000000000001010000000036088521NUBIA CALIMAN PERDOMO 001000000001       
06000000000000000000000000000000000000000036089301000000000000000000000030002707600112300000007128500770999828411100000000000000202602280000000100000000000000001010000000036089301MARTHA ROCIO SILVA MUŃ001000000001       
06000000000000000000000000000000000000000035493941000000000000000000000030002705960112300000004990000770999828411100000000000000202602280000000100000000000000001010000000035493941YOLANDA OTERO TOVAR   001000000001       
06000000000000000000000000000000000000000046385299000000000000000000000030002710320112300000002000000770999828411100000000000000202602280000000100000000000000001010000000046385299HORTILIA ISABEL AGUIRR001000000001       
06000000000000000000000000000000000000000014233227000000000000000000000030002703930112300000020920700770999828411100000000000000202602280000000100000000000000001010000000014233227RENE ROMERO BERMEO    001000000001       
06000000000000000000000000000000000000001079180264000000000000000000000030002701220112300000019610800770999828411100000000000000202602280000000100000000000000001010000001079180264JHON DEINER SALAZAR RA001000000001       
06000000000000000000000000000000000000000034604510000000000000000000000030002705940112300000020344700770999828411100000000000000202602280000000100000000000000001010000000034604510MARIBEL ENRIQUEZ MONTI001000000001       
06000000000000000000000000000000000000001075265484000000000000000000000030002698420112300000013110500770999828411100000000000000202602280000000100000000000000001010000001075265484MOISES SALAZAR MOTTA  001000000001       
06000000000000000000000000000000000000000083093233000000000000000000000030002715140112300000012027200770999828411100000000000000202602280000000100000000000000001010000000083093233ECCEOMO RODRIGUEZ ROJA001000000001       
06000000000000000000000000000000000000001118364118000000000000000000000030002703150112300000003496000770999828411100000000000000202602280000000100000000000000001010000001118364118NEIVER JULIAN BUENAVEN001000000001       
06000000000000000000000000000000000000000360881301000000000000000000000030002707000112300000002800000770999828411100000000000000202602280000000100000000000000001010000000360881301ISABEL CUELLAR MEDINA 001000000001       
06000000000000000000000000000000000000000036347636000000000000000000000030002709520112300000002803700770999828411100000000000000202602280000000100000000000000001010000000036347636YOHANA MARCELA FIGUERO001000000001       
06000000000000000000000000000000000000001079176545000000000000000000000030002700130112300000010781100770999828411100000000000000202602280000000100000000000000001010000001079176545ZAIRA BRILLYTH SUAREZ 001000000001       
06000000000000000000000000000000000000000036086984000000000000000000000030002706400112300000007890100770999828411100000000000000202602280000000100000000000000001010000000036086984MARIA MARLENY SALAZAR 001000000001       
06000000000000000000000000000000000000001079175827000000000000000000000030002699870112300000012593300770999828411100000000000000202602280000000100000000000000001010000001079175827LESBY YANITH TRUJILLO 001000000001       
06000000000000000000000000000000000000000083251823000000000000000000000030002715380112300000017960200770999828411100000000000000202602280000000100000000000000001010000000083251823JESUS ANTONIO URRIAGO 001000000001       
06000000000000000000000000000000000000000012201760000000000000000000000030002703720112300000019368600770999828411100000000000000202602280000000100000000000000001010000000012201760CARLOS ANDRES TRUJILLO001000000001       
06000000000000000000000000000000000000000036345866000000000000000000000030002708610112300000031358900770999828411100000000000000202602280000000100000000000000001010000000036345866SULLY YOLIMA HERMOSA M001000000001       
06000000000000000000000000000000000000001079176672000000000000000000000030002700160112300000025666600770999828411100000000000000202602280000000100000000000000001010000001079176672ANGELMIRO RIVERA      001000000001       
06000000000000000000000000000000000000001084923382000000000000000000000030002702890112300000011822000770999828411100000000000000202602280000000100000000000000001010000001084923382ARLEY ALARCON SAEN    001000000001       
06000000000000000000000000000000000000000036088827000000000000000000000030002707390112300000028896800770999828411100000000000000202602280000000100000000000000001010000000036088827AMANDA MEDINA ROJAS   001000000001       
06000000000000000000000000000000000000001079178758000000000000000000000030002700750112300000048241600770999828411100000000000000202602280000000100000000000000001010000001079178758MARIA ANGELICA QUIROZ 001000000001       
06000000000000000000000000000000000000000036345957000000000000000000000030002708690112300000022321400770999828411100000000000000202602280000000100000000000000001010000000036345957SOFIA BAHAMON RAMIREZ 001000000001       
06000000000000000000000000000000000000000083087089000000000000000000000030002712760112300000025314900770999828411100000000000000202602280000000100000000000000001010000000083087089CAMPO ELIAS TOVAR HERM001000000001       
06000000000000000000000000000000000000000083091167000000000000000000000030002714370112300000037091900770999828411100000000000000202602280000000100000000000000001010000000083091167WILIAN BAHAMON ICOPO  001000000001       
06000000000000000000000000000000000000000083085750000000000000000000000030002712210112300000031355800770999828411100000000000000202602280000000100000000000000001010000000083085750CLARET GUARNIZO GUTIER001000000001       
06000000000000000000000000000000000000000395968065000000000000000000000030002710070112300000019783900770999828411100000000000000202602280000000100000000000000001010000000395968065NIDIA CONSUELO SOLAQUE001000000001       
06000000000000000000000000000000000000000026468493000000000000000000000030002705300112300000011913300770999828411100000000000000202602280000000100000000000000001010000000026468493ANA ARTUNDUAGA        001000000001       
06000000000000000000000000000000000000000079912733000000000000000000000030002711780112300000013567000770999828411100000000000000202602280000000100000000000000001010000000079912733JOHN FREDY CALDERON   001000000001       
06000000000000000000000000000000000000000017669872000000000000000000000030002704210112300000012485000770999828411100000000000000202602280000000100000000000000001010000000017669872YESID CALDERON RADA   001000000001       
06000000000000000000000000000000000000001007704657000000000000000000000030002697890112300000004990000770999828411100000000000000202602280000000100000000000000001010000001007704657JUAN IGNACION SOTO RAM001000000001       
06000000000000000000000000000000000000001079178785000000000000000000000030002715800112300000005990000770999828411100000000000000202602280000000100000000000000001010000001079178785ERIKA JULIETH MORALES 001000000001       
06000000000000000000000000000000000000000094480754000000000000000000000030002715580112300000003000300770999828411100000000000000202602280000000100000000000000001010000000094480754MANUEL FRANCISCO MESA 001000000001       
06000000000000000000000000000000000000000083086958000000000000000000000030002712710112300000002800000770999828411100000000000000202602280000000100000000000000001010000000083086958JOSE DIVER JOEL BONILL001000000001       
06000000000000000000000000000000000000000026468583000000000000000000000030002705350112300000002000000770999828411100000000000000202602280000000100000000000000001010000000026468583ANA MERCEDES CAICEDO  001000000001       
06000000000000000000000000000000000000000036087160000000000000000000000030002706460112300000002807600770999828411100000000000000202602280000000100000000000000001010000000036087160GLORIA SILVA CHACON   001000000001       
06000000000000000000000000000000000000000026467053000000000000000000000030002704810112300000002800000770999828411100000000000000202602280000000100000000000000001010000000026467053SIXTA TULIA GUTIERREZ 001000000001       
06000000000000000000000000000000000000000052262646000000000000000000000030002710910112300000002000000770999828411100000000000000202602280000000100000000000000001010000000052262646MONICA GUTIERREZ NARAN001000000001       
06000000000000000000000000000000000000001079174501000000000000000000000030002699450112300000001679300770999828411100000000000000202602280000000100000000000000001010000001079174501JOHAN LEONARDO QUINCHI001000000001       
06000000000000000000000000000000000000000012123252000000000000000000000030002703520112300000032154000770999828411100000000000000202602280000000100000000000000001010000000012123252JAIME RODOLFO TOVAR QU001000000001       
06000000000000000000000000000000000000001081398008000000000000000000000030002702790112300000014266300770999828411100000000000000202602280000000100000000000000001010000001081398008YUBISLEY GARZON CASTAŃ001000000001       
06000000000000000000000000000000000000001022322843000000000000000000000030002698000112300000012493600770999828411100000000000000202602280000000100000000000000001010000001022322843MAGALY FLOREZ PULIDO  001000000001       
06000000000000000000000000000000000000000049717912000000000000000000000030002710810112300000013100200770999828411100000000000000202602280000000100000000000000001010000000049717912LEONILDE CORTINA MARQU001000000001       
06000000000000000000000000000000000000001079175007000000000000000000000030002699580112300000021541500770999828411100000000000000202602280000000100000000000000001010000001079175007NAYIBE YANIRA DIAZ CON001000000001       
06000000000000000000000000000000000000000014295936000000000000000000000030002703960112300000019796800770999828411100000000000000202602280000000100000000000000001010000000014295936DEIBER MENDOZA OSPINA 001000000001       
06000000000000000000000000000000000000000083087508000000000000000000000030002712920112300000019128700770999828411100000000000000202602280000000100000000000000001010000000083087508ALBER SOTTO           001000000001       
06000000000000000000000000000000000000000026607641000000000000000000000030002705680112300000002661100770999828411100000000000000202602280000000100000000000000001010000000026607641GLORIA GOMEZ RICO     001000000001       
06000000000000000000000000000000000000001079172510000000000000000000000030002698860112300000004990000770999828411100000000000000202602280000000100000000000000001010000001079172510ISRAEL ANDRES CORTES H001000000001       
06000000000000000000000000000000000000000026468755000000000000000000000030002705400112300000008567700770999828411100000000000000202602280000000100000000000000001010000000026468755OLINDA SANCHEZ NINCO  001000000001       
06000000000000000000000000000000000000000026467753000000000000000000000030002705050112300000005109700770999828411100000000000000202602280000000100000000000000001010000000026467753LUZ MARINA VARGAS     001000000001       
06000000000000000000000000000000000000001079186070000000000000000000000030002702500112300000004990000770999828411100000000000000202602280000000100000000000000001010000001079186070JOSE FARITH CAVIEDES M001000000001       
06000000000000000000000000000000000000000036347069000000000000000000000030002709240112300000019128700770999828411100000000000000202602280000000100000000000000001010000000036347069KAROL YOHANA PERDOMO V001000000001       
06000000000000000000000000000000000000000083088316000000000000000000000030002713210112300000013522600770999828411100000000000000202602280000000100000000000000001010000000083088316JUAN CARLOS PERDOMO SC001000000001       
06000000000000000000000000000000000000001096032379000000000000000000000030002702920112300000032599100770999828411100000000000000202602280000000100000000000000001010000001096032379YOHANA ANDREA RENDON L001000000001       
06000000000000000000000000000000000000000055165403000000000000000000000030002711210112300000020843100770999828411100000000000000202602280000000100000000000000001010000000055165403GLORIA JIMENEZ YUNDA  001000000001       
06000000000000000000000000000000000000001104696512000000000000000000000030002702940112300000016547200770999828411100000000000000202602280000000100000000000000001010000001104696512FERNEY CARDENAS RODRIG001000000001       
06000000000000000000000000000000000000000083086045000000000000000000000030002712290112300000012259100770999828411100000000000000202602280000000100000000000000001010000000083086045TOMAS CORTES          001000000001       
06000000000000000000000000000000000000000025201081000000000000000000000030002704480112300000013210100770999828411100000000000000202602280000000100000000000000001010000000025201081LUZ MARIA LOPEZ GOMEZ 001000000001       
06000000000000000000000000000000000000000036347934000000000000000000000030002709750112300000001959200770999828411100000000000000202602280000000100000000000000001010000000036347934YURY TATIANA NARVAEZ B001000000001       
06000000000000000000000000000000000000000083087043000000000000000000000030002712750112300000002800000770999828411100000000000000202602280000000100000000000000001010000000083087043MIGUEL ANTONIO YAGUARA001000000001       
06000000000000000000000000000000000000000036088615000000000000000000000030002707320112300000002000000770999828411100000000000000202602280000000100000000000000001010000000036088615CARMENZA FLOREZ TRUJIL001000000001       
06000000000000000000000000000000000000000036347417000000000000000000000030002709360112300000011591400770999828411100000000000000202602280000000100000000000000001010000000036347417MAYERLY PATRICIA FIERR001000000001       
06000000000000000000000000000000000000000036088825000000000000000000000030002707380112300000002807400770999828411100000000000000202602280000000100000000000000001010000000036088825MARLENY NINCO QUINBAYA001000000001       
06000000000000000000000000000000000000000065789166000000000000000000000030002715790112300000004990000770999828411100000000000000202602280000000100000000000000001010000000065789166ASTRID ELENA MUŃOZ OYU001000000001       
06000000000000000000000000000000000000001079173740000000000000000000000030002699250112300000022571100770999828411100000000000000202602280000000100000000000000001010000001079173740HEBER ENRIQUE GONZALEZ001000000001       
06000000000000000000000000000000000000001079175636000000000000000000000030002699790112300000025416800770999828411100000000000000202602280000000100000000000000001010000001079175636MAIRA ALEJANDRA RINCON001000000001       
06000000000000000000000000000000000000000083228499000000000000000000000030002715310112300000068631000770999828411100000000000000202602280000000100000000000000001010000000083228499CASTRO CORREDOR  HERNA001000000001       
06000000000000000000000000000000000000000055130673000000000000000000000030002711130112300000020971600770999828411100000000000000202602280000000100000000000000001010000000055130673BELLANITH RAYO TOVAR  001000000001       
06000000000000000000000000000000000000001079180258000000000000000000000030002701210112300000019651900770999828411100000000000000202602280000000100000000000000001010000001079180258YESSICA LORENA CABALLE001000000001       
06000000000000000000000000000000000000000083089950000000000000000000000030002713860112300000022167900770999828411100000000000000202602280000000100000000000000001010000000083089950LUIS HUMBERTO MONTENEG001000000001       
06000000000000000000000000000000000000000083089320000000000000000000000030002713580112300000048345800770999828411100000000000000202602280000000100000000000000001010000000083089320RODRIGO SALGADO PASTRA001000000001       
06000000000000000000000000000000000000000004894560000000000000000000000030002710650112300000005767800770999828411100000000000000202602280000000100000000000000001010000000004894560ARNULFO OLIVEROS CORDO001000000001       
06000000000000000000000000000000000000000036347377000000000000000000000030002709350112300000004990000770999828411100000000000000202602280000000100000000000000001010000000036347377GREIDY ORLADIS RODRIGU001000000001       
06000000000000000000000000000000000000000036088806000000000000000000000030002707370112300000004990000770999828411100000000000000202602280000000100000000000000001010000000036088806LUZ MARINA ORTIZ QUINT001000000001       
06000000000000000000000000000000000000000830865845000000000000000000000030002712550112300000025415400770999828411100000000000000202602280000000100000000000000001010000000830865845INSTITUTO MUNICIPAL DE001000000001       
06000000000000000000000000000000000000000080281218000000000000000000000030002711900112300000013484500770999828411100000000000000202602280000000100000000000000001010000000080281218GUILLERMO ALEXANDER MU001000000001       
06000000000000000000000000000000000000000036159197000000000000000000000030002708040112300000020292100770999828411100000000000000202602280000000100000000000000001010000000036159197MARINA SANCHEZ OLAYA  001000000001       
06000000000000000000000000000000000000000094502002000000000000000000000030002715590112300000043541700770999828411100000000000000202602280000000100000000000000001010000000094502002SERNA GALINDEZ  JAVER 001000000001       
06000000000000000000000000000000000000001079172338000000000000000000000030002698790112300000015670800770999828411100000000000000202602280000000100000000000000001010000001079172338MARIA CONSTANZA ESCOBA001000000001       
06000000000000000000000000000000000000000036087229000000000000000000000030002706500112300000033828400770999828411100000000000000202602280000000100000000000000001010000000036087229MARGOT BARCO LEYTON   001000000001       
06000000000000000000000000000000000000000036086750000000000000000000000030002706250112300000028921400770999828411100000000000000202602280000000100000000000000001010000000036086750MARIA LILIANA ORTEGA R001000000001       
06000000000000000000000000000000000000000036378130000000000000000000000030002709920112300000013239600770999828411100000000000000202602280000000100000000000000001010000000036378130HERMELINDA QUINTERO   001000000001       
06000000000000000000000000000000000000000036381767000000000000000000000030002709940112300000022491400770999828411100000000000000202602280000000100000000000000001010000000036381767MARIA MILDRED SALAS QU001000000001       
06000000000000000000000000000000000000001007704839000000000000000000000030002697900112300000002501400770999828411100000000000000202602280000000100000000000000001010000001007704839KELLY JOHANA OME ALFAR001000000001       
06000000000000000000000000000000000000000083091065000000000000000000000030002714340112300000004990000770999828411100000000000000202602280000000100000000000000001010000000083091065OSCAR MAURICIO SUAZA T001000000001       
